S00E00006932635F70726F746D6F747F
S1130000D800FFFF4B0100000000000000000000CA
S11300100000000000004D0100000000000000008E
S11300200000000000000000450200000000000085
S113003000000000000000000000000000000000BC
S113004000000000000000000000000000000000AC
S1130050000000000000000000000000000000009C
S1130060000000000000000000000000000000008C
S1130070000000000000000000000000000000007C
S10400820079
S10700C0FFFFF884BE
S10D00C4000000000000000000002E
S10D00CEFFFFFFFFFFFFFFFFFFFF2E
S11300D8CBF820FE3024B5FC660200FC9D030036F4
S11300E800B53022B5EF04CC0000A747DFF936206D
S11300F8FE3020FEEF04CC0000A747DFF9410032B0
S11301080100EF08B3114982004822B5F643DFF431
S11301184100320000EF08B3114980004820FEF680
S113012843DFF4320000EF0FB3B3410011798000CC
S1130138CEFC00C361CAC2F643DFEDFCAA0200F696
S1130148EFFED761FCC1C3C5C78EFD708EFCC1C765
S1130158F6B800A800443600DE0600A800A1EFF1B6
S1130168AF00016031151DAF0EB5F743DD16340439
S113017801A9086C0208B9FCFA0400E6A1FC4A06C5
S113018800ED1D02AF000160310519AF0EB5F7434C
S1130198DD12340401A9086C0108B9FCFA04003022
S11301A80500EFD98F0AB53103788F0AB531232CAE
S11301B8340C01AA08086C0108BA08A95C3FB9A95B
S11301C86C40B9AA06086C0108BA0651046F0AB54E
S11301D89F0AB5AF14B5E743DD21EF28AF12B54246
S11301E814B5DE31EB10B58D1099A210B5A212B575
S11301F8DB12B5F6B10214B543DF0E341A01A908AF
S11302085CFE08B9CD10FFEF0CAF12B54214B5DF90
S1130218F3FC4B0600C0C09EFC609EFDC6C4C2C071
S113022861FCAF0EB5F743DF06FC4C0600EFE6EBC6
S11302380CB5899D10A20CB5B20EB5EFD8C1C3C5D3
S1130248C78EFD708EFCC18E5131730CC09EFC604C
S11102589EFDC6C4C2C061FCFC4D0600EFEE64
S113026616C80300AEF82761D339315E12F643DDB2
S113027627BBBC02BC04BC06BC08BC0ABC0CBC0E36
S1130286BC10BC12BC14BC16BC18BC1ABC1CBC1ECC
S11302963704200037B3EFD6AEF847DD06F6BBA722
S11302A6A7EFF5D7FE1D00FCEB0300FCFB0300FCE7
S11302B6B50400FE3A00BF00B513BF02B5F7E6FE6B
S11302C60A00EFEFFC9D0300717AFAD7C7C3C43264
S11302D60900CEFB01B80015313D050314A800043E
S11302E6FFFFB8001261C8B51503DFF1DCEFC0D714
S11302F62004CF04B548C80300C80200C80200CFD2
S113030605B591CF06B590E6143222B55190FC3E60
S11303160400F730F401FEB3FFAEF8A1A1123402D3
S1130326005191FC6F0400F730F401FE9EFF880330
S11303367088021431FF1215317FB800FCD607000D
S11303461430003FC1F1C115FC34070014BF00B5D9
S113035613BF02B5A804BF08B5100815D734160094
S1130366CA0000CA0100CA0200CA0300CA0400CABD
S11303760500CA0600CA0700CA0800FCD30300FC2D
S1130386A20300FCD80600FCEB0300FC560500FCA7
S1130396D60300F57800D7717BFAEFC136C4023470
S11303A6C402718215A116CEA000717AA1714BA464
S11303B6CA030171A336C402716AA1716BA4710BDD
S11303C6A1CA04808A046C429A0471A3D78EA8D762
S11303D636E4FF7182710BE0710AEC710AE87183ED
S11303E6D7CEABACD736F00071A200000000E6BC55
S11303F626FE0100D7345100AAC3086C0108BAC30B
S1130406711AE5711BE1711AED711AE9300700BA28
S1130416B3302400BAB7301700BABBC910009EAA7D
S1130426C76C01086C0108BAC78971EA996A01C0E8
S1130436513F5F21FF9E21D7C79800C3C6C5C2F5A9
S11304460AB5E50AB5340C01A95C3FB9A96C80B9B3
S113045613BF0EB517BF0CB5FE5400711BE1711B1B
S1130466E58800718B9D10C0D7C79800C3C6C5C266
S1130476F50AB5CF0AB502340C01A95C3FB9A96CDB
S113048680B913BF14B5F6BF12B517BF10B5FE1E5B
S113049600711BE1711BE58800718A9D10C0D7713C
S11304A61AE5341401A9086C0108B9711BE1D7C710
S11304B6341801A9085CFE08B9C80000EF060088D4
S11304C60081980088004C0EDCF4341201AA065C04
S11304D6FEBA06AA08086C0108BA08A9086C01083D
S11304E6B9C80000EF0600880081980088004C0E09
S11304F6DCF4C0D7C7341401A9086C0108B9AA06EC
S1130506085CFE08BA06AA04085CFE08BA04C80019
S113051600EF0600880081980088004C0EDCF43455
S11305261801A96C01B9C80000EF0600880081987B
S11305360088004C0EDCF4A9086C0108B9C8000058
S1130546EF0600880081980088004C0EDCF4C0D7C2
S11305567140F00036300271F3712AE6712BE271B4
S11305662AEE712AEA5A06F3510C6F26FF9E2634A8
S1130576300215A11671B3CA024CCA03558A017119
S11305868A9A01CA0410711A52710A5236300271DB
S1130596C371B271A2712BE671F271E251F35F2657
S11305A6FF9E26D736300271F3D73630027182D7D2
S11305B6C3C1712AE68E5231650E8E5131730971AB
S11305C62BE63082001004D73630027192712BE686
S11305D6C0C16091D070DFFA8E51311503F7EF0375
S11305E632830015BF20B5A802BF1EB5F516B5881F
S11305F601718B9E5013EFCDC3C1712AE68E523121
S1130606650E8E51317309712BE63082001004D7C2
S11306163630027192712BE6C0C16091D070DFFA58
S11306268E51311503F7EF0332830015BF1AB5F661
S1130636BF1CB5A802BF18B5F516B58801718A9E08
S11306465013EFC9D7D7D78E52316308AF20B5F709
S11306564361E8D78F16B571FC8E51DC2631230130
S1130666D751806F16B59F16B58E51363002313389
S11306760671A271B3EF3271B2AF20B5F743DF450D
S11306867182D7313326AF1CB5421AB5DE32EB1868
S1130696B58E5099A218B5A21CB5AF1CB53630025A
S11306A6421AB5DF0471A371B271D2D78E513123C8
S11306B608AF20B5F74361E8D7AF20B5F743DF05A8
S11306C6363002EFBBEB1EB5899E50A21EB5B22092
S11306D6B5D7F401CF5100C0CF56000CF52002CE99
S10606E621FCD719
S11306E9C0F6B112D716A8066168616EDFF213016C
S11306F908616D616C61E8E16108DDE4ECEE070015
S11307091301D1DD0CA80635B806A80833B808EFDB
S113071924C2F2F6D760616D616CDDF515FCF6074C
S1130729001467318F57000716EF29148807617B76
S11307395C80C1A8080181DDAC91DDC476E1311E7C
S1130749B808130181DDA791DDCB6106F161DC777E
S1130759E1311E12C713880AD616A808CEFB013543
S1130769330716C3A80CCEFB010514626116636135
S113077917C2A808CEFB0133051461D8A7F6436153
S1130789E8E161641712C631730715011461FE614A
S1130799D8A717248000317317A144FF0061C8EC5E
S11307A9EE070063610108311E336508EC06080091
S11307B944E8FF61D8EE59FF3533311E3361FB0834
S11307C961FB61D8718A0884DFEF35EFD6335400B1
S11307D971FC33DE0C14F62514613170231215549F
S11307E901EC19080032807FC06163F6D7570133E1
S11307F908311C61DC973175F8318E33D716311EF7
S1130809641C7FDE06A7F64761F8A3C0616317D7A6
S11308190361C8DD442333559E440000DF065110AB
S11308296125F13331730A9501311C61D8A1317500
S1130839F6618A4C80618ADC11DF0633718C33DE00
S11308490983DF0604010061D885618C718C630812
S10D08593561FB0871F9081215D788
S1053000112297
S21403FE00FFFFFFFFFFFFFFFFFFFFFFFFFFFFFFFFFA
S21403FE10FFFFFFFFFFFFFFFFFFFFFFFFFFFFFFFFEA
S21403FE20FFFFFFFFFFFFFFFFFFFFFFFFFFFFFFFFDA
S21403FE30FFFFFFFFFFFFFFFFFFFFFFFFFFFFFFFFCA
S21403FE40FFFFFFFFFFFFFFFFFFFFFFFFFFFFFFFFBA
S21403FE50FFFFFFFFFFFFFFFFFFFFFFFFFFFFFFFFAA
S21403FE60FFFFFFFFFFFFFFFFFFFFFFFFFFFFFFFF9A
S21403FE70FFFFFFFFFFFFFFFFFFFFFFFFFFFFFFFF8A
S21403FE80FFFFFFFFFFFFFFFFFFFFFFFFFFFFFFFF7A
S21403FE90FFFFFFFFFFFFFFFFFFFFFFFFFFFFFFFF6A
S21403FEA0FFFFFFFFFFFFFFFFFFFFFFFFFFFFFFFF5A
S21403FEB0FFFFFFFFFFFFFFFFFFFFFFFFFFFFFFFF4A
S21403FEC0FFFFFFFFFFFFFFFFFFFFFFFFFFFFFFFF3A
S21403FED0FFFFFFFFFFFFFFFFFFFFFFFFFFFFFFFF2A
S21403FEE0FFFFFFFFFFFFFFFFFFFFFFFFFFFFFFFF1A
S21403FEF0FFFFFFFFFFFFFFFFFFFFFFFFFFFFFFFF0A
S21403FF00FFFFFFFFFFFFFFFFFFFFFFFFFFFFFFFFF9
S21403FF10FFFFFFFFFFFFFFFFFFFFFFFFFFFFFFFFE9
S21403FF20FFFFFFFFFFFFFFFFFFFFFFFFFFFFFFFFD9
S21403FF30FFFFFFFFFFFFFFFFFFFFFFFFFFFFFFFFC9
S21403FF40FFFFFFFFFFFFFFFFFFFFFFFFFFFFFFFFB9
S21403FF50FFFFFFFFFFFFFFFFFFFFFFFFFFFFFFFFA9
S21403FF60FFFFFFFFFFFFFFFFFFFFFFFFFFFFFFFF99
S21403FF70FFFFFFFFFFFFFFFFFFFFFFFFFFFFFFFF89
S21403FF80FFFFFFFFFFFFFFFFFFFFFFFFFFFFFFFF79
S21403FF90FFFFFFFFFFFFFFFFFFFFFFFFFFFFFFFF69
S21403FFA0FFFFFFFFFFFFFFFFFFFFFFFFFFFFFFFF59
S21403FFB0FFFFFFFFFFFFFFFFFFFFFFFFFFFFFFFF49
S21403FFC0FFFFFFFFFFFFFFFFFFFFFFFFFFFFFFFF39
S21403FFD0FFFFFFFFFFFFFFFFFFFFFFFFFFFFFFFF29
S21403FFE0FFFFFFFFFFFFFFFFFFFFFFFFFFFFFFFF19
S21403FFF0FFFFFFFFFFFFFFFFFFFFFFFFFFFFFFFF09
S9030000FC
